:04000000BDEF05F05B
:10080000003132334134353642373839432A3023C8
:10081000443132334142494359434C4520414C41D4
:10082000524D0050617373776F72643B0000040E89
:100830004E6E0C0E4D6E340EE82EFED74D2EFCD7AC
:100840004E2EFAD721C04DF022C04EF0D8904D3632
:100850004E36D8904D364E36010E4F6E080E506E05
:100860004D504F264E50502225504F262650502294
:100870004FC0F6FF50C0F7FF2C0E2324D96E000E98
:100880002420DA6E0800F5CFDFFF2A0E2B6E2C0E27
:100890002324D96E000E2420DA6E440EDE18D8A46C
:1008A00013D008EC06F02C0E446E000E456EFF0EC1
:1008B0002324466EFF0E2420476E53C048F054C0D8
:1008C00049F056EC05F012002B50A1EC05F0010E9A
:1008D0003F6E53502EEC05F0234A242A1200720E6C
:1008E000D36EC180C182C184C18681508150815044
:1008F0008150F00E93168A50000E956EF6EC04F0BF
:1009000008EC06F0010E3F6E010E2EEC05F0150E00
:10091000406E080E416E7CEC05F0060E526E130E12
:10092000516EAE0EE82EFED7512EFCD7522EFAD7BE
:1009300008EC06F0010E3F6E010E2EEC05F0230EC2
:10094000406E080E416E7CEC05F0060E526E130EE2
:10095000516EAE0EE82EFED7512EFCD7522EFAD78E
:10096000B3EC04F0FDD728BE06D0285015E1040EE4
:10097000275CD8B011D027C021F028C022F05550F4
:10098000FF0A8A6ED8905534556E5634566E274AF3
:10099000282AFEEC05F009D0000E286E000E276E06
:1009A0008A68000E566E010E556EFEEC05F0D8A05A
:1009B000120081B804D0000E266E000E11D081BA4C
:1009C00004D0000E266E010E0BD081BC04D0000EA8
:1009D000266E020E05D081BE04D0000E266E030ED8
:1009E000256E17EC04F0534A542A1200000ED8EC7E
:1009F00005F0340E3F6EF20EE82EFED73F2EFCD7E8
:100A0000030EEEEC05F00D0E3F6EFC0EE82EFED749
:100A10003F2EFCD7030EEEEC05F01D0E3F6E910E3F
:100A2000E82EFED73F2EFCD700F0030EEEEC05F0CB
:100A3000020EEEEC05F0020EEEEC05F0080EEEEC08
:100A400005F0000EEEEC05F00C0EEEEC05F0000EDD
:100A5000EEEC05F0060EEEEC05F01200406E4004E0
:100A6000D8A410D03F507F0F436E43380F0B416E18
:100A700043500F0B426E4150EEEC05F04250EEEC4D
:100A800005F01200020E4018D8A412003F50BF0F0C
:100A9000436E43380F0B416E43500F0B426E415073
:100AA000EEEC05F04250EEEC05F01200000E4C6E3C
:100AB000010E4B6E000E2A6E000E296E12D02950C8
:100AC0004424D96E2A504520DA6EDF50A1EC05F09F
:100AD000010E3F6E48502EEC05F0484A492A294A3B
:100AE0002A2A2950465C4750800A4A6E2A50800ABA
:100AF0004A58D8A01200E3D7000E456E000E446E8F
:100B000010D044504024426E45504120436E42C0B4
:100B1000F6FF43C0F7FF0800F550A1EC05F0444A8A
:100B2000452A44504024426E45504120436E42C005
:100B3000F6FF43C0F7FF0800F5500009D8B41200D3
:100B4000E0D73F6E3F500F0B3D6E3F50F00B3E6EB7
:100B500083843E380F0BD8EC05F083861A0EE82EFE
:100B6000FED700D083963D50D8EC05F083861A0E50
:100B7000E82EFED700D0839612001E0EF66E0C0EE5
:100B8000F76E000EF86E00EE53F010EE04F0090060
:100B9000F5CFEEFFE550E150FAE100EE01F03B0E3B
:100BA000EE6AE806FDE1000EF86E00016FEF04F05A
:100BB0003C6E3CA002D0838801D083983CA202D036
:100BC000838A01D0839A3CA402D0838C01D0839C79
:100BD0003CA602D0838E1200839E12003E6E839448
:100BE0003E50D8EC05F083860B0E3D6E620EE82E6B
:100BF000FED73D2EFCD700D08396120081B881AA83
:100C000005D081BC81AE02D0D8901200D8801200ED
:100C1000000EEEEC05F0010EEEEC05F01200020005
:020C20000100D1
:020000040020DA
:08000000FFFFFFFFFFFFFFFF00
:020000040030CA
:0E000000000C191EFF8381FF0FC00FE00F40A0
:00000001FF
